{
  "_format": "hh-sol-artifact-1",
  "contractName": "WHMM",
  "sourceName": "contracts/WHMM.sol",
  "abi": [
    {
      "anonymous": false,
      "inputs": [
        {
          "indexed": true,
          "internalType": "address",
          "name": "previousOwner",
          "type": "address"
        },
        {
          "indexed": true,
          "internalType": "address",
          "name": "newOwner",
          "type": "address"
        }
      ],
      "name": "OwnershipTransferred",
      "type": "event"
    },
    {
      "inputs": [],
      "name": "get_fees",
      "outputs": [
        {
          "internalType": "uint24",
          "name": "",
          "type": "uint24"
        }
      ],
      "stateMutability": "view",
      "type": "function"
    },
    {
      "inputs": [],
      "name": "native_balance",
      "outputs": [
        {
          "internalType": "uint256",
          "name": "",
          "type": "uint256"
        }
      ],
      "stateMutability": "view",
      "type": "function"
    },
    {
      "inputs": [],
      "name": "owner",
      "outputs": [
        {
          "internalType": "address",
          "name": "",
          "type": "address"
        }
      ],
      "stateMutability": "view",
      "type": "function"
    },
    {
      "inputs": [],
      "name": "renounceOwnership",
      "outputs": [],
      "stateMutability": "nonpayable",
      "type": "function"
    },
    {
      "inputs": [
        {
          "internalType": "uint24",
          "name": "newFees",
          "type": "uint24"
        }
      ],
      "name": "set_fees",
      "outputs": [],
      "stateMutability": "nonpayable",
      "type": "function"
    },
    {
      "inputs": [
        {
          "internalType": "uint64",
          "name": "wh_token_index",
          "type": "uint64"
        },
        {
          "internalType": "uint256",
          "name": "amountIn",
          "type": "uint256"
        }
      ],
      "name": "swap_for_native",
      "outputs": [
        {
          "internalType": "uint256",
          "name": "",
          "type": "uint256"
        }
      ],
      "stateMutability": "nonpayable",
      "type": "function"
    },
    {
      "inputs": [
        {
          "internalType": "uint64",
          "name": "wh_token_index",
          "type": "uint64"
        },
        {
          "internalType": "uint256",
          "name": "amountIn",
          "type": "uint256"
        }
      ],
      "name": "swap_for_wh_tokens",
      "outputs": [
        {
          "internalType": "uint256",
          "name": "",
          "type": "uint256"
        }
      ],
      "stateMutability": "nonpayable",
      "type": "function"
    },
    {
      "inputs": [
        {
          "internalType": "address",
          "name": "newOwner",
          "type": "address"
        }
      ],
      "name": "transferOwnership",
      "outputs": [],
      "stateMutability": "nonpayable",
      "type": "function"
    },
    {
      "inputs": [],
      "name": "wh_token_balance",
      "outputs": [
        {
          "internalType": "uint256",
          "name": "",
          "type": "uint256"
        }
      ],
      "stateMutability": "view",
      "type": "function"
    },
    {
      "inputs": [
        {
          "internalType": "uint256",
          "name": "amount",
          "type": "uint256"
        }
      ],
      "name": "withdraw_native_liquidity",
      "outputs": [
        {
          "internalType": "uint256",
          "name": "",
          "type": "uint256"
        }
      ],
      "stateMutability": "nonpayable",
      "type": "function"
    },
    {
      "inputs": [
        {
          "internalType": "uint64",
          "name": "wh_token_index",
          "type": "uint64"
        },
        {
          "internalType": "uint256",
          "name": "amount",
          "type": "uint256"
        }
      ],
      "name": "withdraw_wh_liquidity",
      "outputs": [
        {
          "internalType": "uint256",
          "name": "",
          "type": "uint256"
        }
      ],
      "stateMutability": "nonpayable",
      "type": "function"
    }
  ],
  "bytecode": "0x6000805462ffffff60a01b1916601960a11b17905560c060405273f14f9596430931e177469715c591513308244e8f6080908152732020b82569721df47393505eeedf2863d6a0504f60a0526100599060019060026100c5565b5034801561006657600080fd5b5061007033610075565b61013f565b600080546001600160a01b038381166001600160a01b0319831681178455604051919092169283917f8be0079c531659141344cd1fd0a4f28419497f9722a3daafe3b4186f6b6457e09190a35050565b82805482825590600052602060002090810192821561011a579160200282015b8281111561011a57825182546001600160a01b0319166001600160a01b039091161782556020909201916001909101906100e5565b5061012692915061012a565b5090565b5b80821115610126576000815560010161012b565b610cd08061014e6000396000f3fe608060405234801561001057600080fd5b50600436106100a95760003560e01c806366edd1951161007157806366edd1951461011a578063715018a61461012d5780638da5cb5b14610137578063b5e63d7314610152578063c1566d0b14610165578063f2fde38b1461017857600080fd5b806323546351146100ae578063300e4419146100d657806331c24857146100ec5780633681b720146100ff57806340230ee114610112575b600080fd5b600054600160a01b900462ffffff1660405162ffffff90911681526020015b60405180910390f35b6100de61018b565b6040519081526020016100cd565b6100de6100fa366004610af4565b610269565b6100de61010d366004610af4565b610536565b6100de6107aa565b6100de610128366004610af4565b610834565b6101356108f0565b005b6000546040516001600160a01b0390911681526020016100cd565b6100de610160366004610b2d565b610904565b610135610173366004610b46565b6109a0565b610135610186366004610b72565b6109cc565b600080805b60015467ffffffffffffffff821610156102635760018167ffffffffffffffff16815481106101c1576101c1610b9b565b6000918252602090912001546040516370a0823160e01b81523060048201526001600160a01b03909116906370a082319060240160206040518083038186803b15801561020d57600080fd5b505afa158015610221573d6000803e3d6000fd5b505050506040513d601f19601f820116820180604052508101906102459190610bb1565b61024f9083610be0565b91508061025b81610bf8565b915050610190565b50919050565b6040516370a0823160e01b8152306004820152600090829073332ef44ece256e4d99838f2ad4e63db4754e0876906370a082319060240160206040518083038186803b1580156102b857600080fd5b505afa1580156102cc573d6000803e3d6000fd5b505050506040513d601f19601f820116820180604052508101906102f09190610bb1565b10156102fb57600080fd5b8160018467ffffffffffffffff168154811061031957610319610b9b565b600091825260209091200154604051636eb1769f60e11b81523360048201523060248201526001600160a01b039091169063dd62ed3e9060440160206040518083038186803b15801561036b57600080fd5b505afa15801561037f573d6000803e3d6000fd5b505050506040513d601f19601f820116820180604052508101906103a39190610bb1565b10156103ae57600080fd5b60018367ffffffffffffffff16815481106103cb576103cb610b9b565b6000918252602090912001546040516323b872dd60e01b8152336004820152306024820152604481018490526001600160a01b03909116906323b872dd90606401602060405180830381600087803b15801561042657600080fd5b505af115801561043a573d6000803e3d6000fd5b505050506040513d601f19601f8201168201806040525081019061045e9190610c20565b61046757600080fd5b60008054620f42409061048690600160a01b900462ffffff1685610c42565b6104909190610c61565b9050600061049e8285610c83565b60405163a9059cbb60e01b81523360048201526024810182905290915073332ef44ece256e4d99838f2ad4e63db4754e08769063a9059cbb906044015b602060405180830381600087803b1580156104f557600080fd5b505af1158015610509573d6000803e3d6000fd5b505050506040513d601f19601f8201168201806040525081019061052d9190610c20565b50949350505050565b60008160018467ffffffffffffffff168154811061055657610556610b9b565b6000918252602090912001546040516370a0823160e01b81523060048201526001600160a01b03909116906370a082319060240160206040518083038186803b1580156105a257600080fd5b505afa1580156105b6573d6000803e3d6000fd5b505050506040513d601f19601f820116820180604052508101906105da9190610bb1565b10156105e557600080fd5b604051636eb1769f60e11b8152336004820152306024820152829073332ef44ece256e4d99838f2ad4e63db4754e08769063dd62ed3e9060440160206040518083038186803b15801561063757600080fd5b505afa15801561064b573d6000803e3d6000fd5b505050506040513d601f19601f8201168201806040525081019061066f9190610bb1565b101561067a57600080fd5b6040516323b872dd60e01b81523360048201523060248201526044810183905273332ef44ece256e4d99838f2ad4e63db4754e0876906323b872dd90606401602060405180830381600087803b1580156106d357600080fd5b505af11580156106e7573d6000803e3d6000fd5b505050506040513d601f19601f8201168201806040525081019061070b9190610c20565b61071457600080fd5b60008054620f42409061073390600160a01b900462ffffff1685610c42565b61073d9190610c61565b9050600061074b8285610c83565b905060018567ffffffffffffffff168154811061076a5761076a610b9b565b60009182526020909120015460405163a9059cbb60e01b8152336004820152602481018390526001600160a01b039091169063a9059cbb906044016104db565b6040516370a0823160e01b815230600482015260009073332ef44ece256e4d99838f2ad4e63db4754e0876906370a082319060240160206040518083038186803b1580156107f757600080fd5b505afa15801561080b573d6000803e3d6000fd5b505050506040513d601f19601f8201168201806040525081019061082f9190610bb1565b905090565b600061083e610a4a565b60018367ffffffffffffffff168154811061085b5761085b610b9b565b60009182526020909120015460405163a9059cbb60e01b8152336004820152602481018490526001600160a01b039091169063a9059cbb90604401602060405180830381600087803b1580156108b057600080fd5b505af11580156108c4573d6000803e3d6000fd5b505050506040513d601f19601f820116820180604052508101906108e89190610c20565b509092915050565b6108f8610a4a565b6109026000610aa4565b565b600061090e610a4a565b60405163a9059cbb60e01b81523360048201526024810183905273332ef44ece256e4d99838f2ad4e63db4754e08769063a9059cbb90604401602060405180830381600087803b15801561096157600080fd5b505af1158015610975573d6000803e3d6000fd5b505050506040513d601f19601f820116820180604052508101906109999190610c20565b5090919050565b6109a8610a4a565b6000805462ffffff909216600160a01b0262ffffff60a01b19909216919091179055565b6109d4610a4a565b6001600160a01b038116610a3e5760405162461bcd60e51b815260206004820152602660248201527f4f776e61626c653a206e6577206f776e657220697320746865207a65726f206160448201526564647265737360d01b60648201526084015b60405180910390fd5b610a4781610aa4565b50565b6000546001600160a01b031633146109025760405162461bcd60e51b815260206004820181905260248201527f4f776e61626c653a2063616c6c6572206973206e6f7420746865206f776e65726044820152606401610a35565b600080546001600160a01b038381166001600160a01b0319831681178455604051919092169283917f8be0079c531659141344cd1fd0a4f28419497f9722a3daafe3b4186f6b6457e09190a35050565b60008060408385031215610b0757600080fd5b823567ffffffffffffffff81168114610b1f57600080fd5b946020939093013593505050565b600060208284031215610b3f57600080fd5b5035919050565b600060208284031215610b5857600080fd5b813562ffffff81168114610b6b57600080fd5b9392505050565b600060208284031215610b8457600080fd5b81356001600160a01b0381168114610b6b57600080fd5b634e487b7160e01b600052603260045260246000fd5b600060208284031215610bc357600080fd5b5051919050565b634e487b7160e01b600052601160045260246000fd5b60008219821115610bf357610bf3610bca565b500190565b600067ffffffffffffffff80831681811415610c1657610c16610bca565b6001019392505050565b600060208284031215610c3257600080fd5b81518015158114610b6b57600080fd5b6000816000190483118215151615610c5c57610c5c610bca565b500290565b600082610c7e57634e487b7160e01b600052601260045260246000fd5b500490565b600082821015610c9557610c95610bca565b50039056fea2646970667358221220eb55e4a4efcccfd97b49742ca54ff1995a8f4cc134d595141594f19c73a1a4d864736f6c63430008090033",
  "linkReferences": {},
  "deployedLinkReferences": {}
}